{
  "_format": "hh-sol-artifact-1",
  "contractName": "GameItem",
  "sourceName": "contracts/GameItem.sol",
  "abi": [
    {
      "inputs": [],
      "stateMutability": "nonpayable",
      "type": "constructor"
    },
    {
      "anonymous": false,
      "inputs": [
        {
          "indexed": true,
          "internalType": "address",
          "name": "owner",
          "type": "address"
        },
        {
          "indexed": true,
          "internalType": "address",
          "name": "approved",
          "type": "address"
        },
        {
          "indexed": true,
          "internalType": "uint256",
          "name": "tokenId",
          "type": "uint256"
        }
      ],
      "name": "Approval",
      "type": "event"
    },
    {
      "anonymous": false,
      "inputs": [
        {
          "indexed": true,
          "internalType": "address",
          "name": "owner",
          "type": "address"
        },
        {
          "indexed": true,
          "internalType": "address",
          "name": "operator",
          "type": "address"
        },
        {
          "indexed": false,
          "internalType": "bool",
          "name": "approved",
          "type": "bool"
        }
      ],
      "name": "ApprovalForAll",
      "type": "event"
    },
    {
      "anonymous": false,
      "inputs": [
        {
          "indexed": true,
          "internalType": "address",
          "name": "from",
          "type": "address"
        },
        {
          "indexed": true,
          "internalType": "address",
          "name": "to",
          "type": "address"
        },
        {
          "indexed": true,
          "internalType": "uint256",
          "name": "tokenId",
          "type": "uint256"
        }
      ],
      "name": "Transfer",
      "type": "event"
    },
    {
      "inputs": [],
      "name": "MAX_PER_MINT",
      "outputs": [
        {
          "internalType": "uint256",
          "name": "",
          "type": "uint256"
        }
      ],
      "stateMutability": "view",
      "type": "function"
    },
    {
      "inputs": [],
      "name": "MAX_SUPPLY",
      "outputs": [
        {
          "internalType": "uint256",
          "name": "",
          "type": "uint256"
        }
      ],
      "stateMutability": "view",
      "type": "function"
    },
    {
      "inputs": [],
      "name": "NAME",
      "outputs": [
        {
          "internalType": "string",
          "name": "",
          "type": "string"
        }
      ],
      "stateMutability": "view",
      "type": "function"
    },
    {
      "inputs": [],
      "name": "PRICE",
      "outputs": [
        {
          "internalType": "uint256",
          "name": "",
          "type": "uint256"
        }
      ],
      "stateMutability": "view",
      "type": "function"
    },
    {
      "inputs": [],
      "name": "SYMBOL",
      "outputs": [
        {
          "internalType": "string",
          "name": "",
          "type": "string"
        }
      ],
      "stateMutability": "view",
      "type": "function"
    },
    {
      "inputs": [
        {
          "internalType": "address",
          "name": "to",
          "type": "address"
        },
        {
          "internalType": "uint256",
          "name": "tokenId",
          "type": "uint256"
        }
      ],
      "name": "approve",
      "outputs": [],
      "stateMutability": "nonpayable",
      "type": "function"
    },
    {
      "inputs": [
        {
          "internalType": "address",
          "name": "player",
          "type": "address"
        }
      ],
      "name": "awardItem",
      "outputs": [
        {
          "internalType": "uint256",
          "name": "",
          "type": "uint256"
        }
      ],
      "stateMutability": "payable",
      "type": "function"
    },
    {
      "inputs": [
        {
          "internalType": "address",
          "name": "owner",
          "type": "address"
        }
      ],
      "name": "balanceOf",
      "outputs": [
        {
          "internalType": "uint256",
          "name": "",
          "type": "uint256"
        }
      ],
      "stateMutability": "view",
      "type": "function"
    },
    {
      "inputs": [
        {
          "internalType": "uint256",
          "name": "tokenId",
          "type": "uint256"
        }
      ],
      "name": "getApproved",
      "outputs": [
        {
          "internalType": "address",
          "name": "",
          "type": "address"
        }
      ],
      "stateMutability": "view",
      "type": "function"
    },
    {
      "inputs": [
        {
          "internalType": "address",
          "name": "owner",
          "type": "address"
        },
        {
          "internalType": "address",
          "name": "operator",
          "type": "address"
        }
      ],
      "name": "isApprovedForAll",
      "outputs": [
        {
          "internalType": "bool",
          "name": "",
          "type": "bool"
        }
      ],
      "stateMutability": "view",
      "type": "function"
    },
    {
      "inputs": [],
      "name": "name",
      "outputs": [
        {
          "internalType": "string",
          "name": "",
          "type": "string"
        }
      ],
      "stateMutability": "view",
      "type": "function"
    },
    {
      "inputs": [
        {
          "internalType": "uint256",
          "name": "tokenId",
          "type": "uint256"
        }
      ],
      "name": "ownerOf",
      "outputs": [
        {
          "internalType": "address",
          "name": "",
          "type": "address"
        }
      ],
      "stateMutability": "view",
      "type": "function"
    },
    {
      "inputs": [
        {
          "internalType": "address",
          "name": "from",
          "type": "address"
        },
        {
          "internalType": "address",
          "name": "to",
          "type": "address"
        },
        {
          "internalType": "uint256",
          "name": "tokenId",
          "type": "uint256"
        }
      ],
      "name": "safeTransferFrom",
      "outputs": [],
      "stateMutability": "nonpayable",
      "type": "function"
    },
    {
      "inputs": [
        {
          "internalType": "address",
          "name": "from",
          "type": "address"
        },
        {
          "internalType": "address",
          "name": "to",
          "type": "address"
        },
        {
          "internalType": "uint256",
          "name": "tokenId",
          "type": "uint256"
        },
        {
          "internalType": "bytes",
          "name": "_data",
          "type": "bytes"
        }
      ],
      "name": "safeTransferFrom",
      "outputs": [],
      "stateMutability": "nonpayable",
      "type": "function"
    },
    {
      "inputs": [
        {
          "internalType": "address",
          "name": "operator",
          "type": "address"
        },
        {
          "internalType": "bool",
          "name": "approved",
          "type": "bool"
        }
      ],
      "name": "setApprovalForAll",
      "outputs": [],
      "stateMutability": "nonpayable",
      "type": "function"
    },
    {
      "inputs": [
        {
          "internalType": "bytes4",
          "name": "interfaceId",
          "type": "bytes4"
        }
      ],
      "name": "supportsInterface",
      "outputs": [
        {
          "internalType": "bool",
          "name": "",
          "type": "bool"
        }
      ],
      "stateMutability": "view",
      "type": "function"
    },
    {
      "inputs": [],
      "name": "symbol",
      "outputs": [
        {
          "internalType": "string",
          "name": "",
          "type": "string"
        }
      ],
      "stateMutability": "view",
      "type": "function"
    },
    {
      "inputs": [
        {
          "internalType": "uint256",
          "name": "tokenId",
          "type": "uint256"
        }
      ],
      "name": "tokenURI",
      "outputs": [
        {
          "internalType": "string",
          "name": "",
          "type": "string"
        }
      ],
      "stateMutability": "view",
      "type": "function"
    },
    {
      "inputs": [
        {
          "internalType": "address",
          "name": "_owner",
          "type": "address"
        }
      ],
      "name": "tokensCountByOwner",
      "outputs": [
        {
          "internalType": "uint256",
          "name": "",
          "type": "uint256"
        }
      ],
      "stateMutability": "view",
      "type": "function"
    },
    {
      "inputs": [
        {
          "internalType": "address",
          "name": "from",
          "type": "address"
        },
        {
          "internalType": "address",
          "name": "to",
          "type": "address"
        },
        {
          "internalType": "uint256",
          "name": "tokenId",
          "type": "uint256"
        }
      ],
      "name": "transferFrom",
      "outputs": [],
      "stateMutability": "nonpayable",
      "type": "function"
    }
  ],
  "bytecode": "0x60806040523480156200001157600080fd5b506040518060400160405280600881526020017f47616d654974656d0000000000000000000000000000000000000000000000008152506040518060400160405280600381526020017f49544d000000000000000000000000000000000000000000000000000000000081525081600090805190602001906200009692919062000124565b508060019080519060200190620000af92919062000124565b505050604051620000c090620001b5565b604051809103906000f080158015620000dd573d6000803e3d6000fd5b50600960006101000a81548173ffffffffffffffffffffffffffffffffffffffff021916908373ffffffffffffffffffffffffffffffffffffffff16021790555062000247565b8280546200013290620001e2565b90600052602060002090601f016020900481019282620001565760008555620001a2565b82601f106200017157805160ff1916838001178555620001a2565b82800160010185558215620001a2579182015b82811115620001a157825182559160200191906001019062000184565b5b509050620001b19190620001c3565b5090565b61093f806200376083390190565b5b80821115620001de576000816000905550600101620001c4565b5090565b60006002820490506001821680620001fb57607f821691505b6020821081141562000212576200021162000218565b5b50919050565b7f4e487b7100000000000000000000000000000000000000000000000000000000600052602260045260246000fd5b61350980620002576000396000f3fe60806040526004361061011f5760003560e01c80638d859f3e116100a0578063bd066bbb11610064578063bd066bbb146103e7578063c87b56dd14610424578063e985e9c514610461578063f2fb21201461049e578063f76f8d78146104ce5761011f565b80638d859f3e1461031457806395d89b411461033f578063a22cb4651461036a578063a3f4df7e14610393578063b88d4fde146103be5761011f565b806323b872dd116100e757806323b872dd1461021d57806332cb6b0c1461024657806342842e0e146102715780636352211e1461029a57806370a08231146102d75761011f565b806301ffc9a71461012457806306fdde0314610161578063081812fc1461018c578063095ea7b3146101c957806309d42b30146101f2575b600080fd5b34801561013057600080fd5b5061014b60048036038101906101469190612187565b6104f9565b604051610158919061276e565b60405180910390f35b34801561016d57600080fd5b506101766105db565b60405161018391906127a4565b60405180910390f35b34801561019857600080fd5b506101b360048036038101906101ae91906121d9565b61066d565b6040516101c09190612707565b60405180910390f35b3480156101d557600080fd5b506101f060048036038101906101eb919061214b565b6106f2565b005b3480156101fe57600080fd5b5061020761080a565b6040516102149190612a06565b60405180910390f35b34801561022957600080fd5b50610244600480360381019061023f9190612045565b61080f565b005b34801561025257600080fd5b5061025b61086f565b6040516102689190612a06565b60405180910390f35b34801561027d57600080fd5b5061029860048036038101906102939190612045565b610874565b005b3480156102a657600080fd5b506102c160048036038101906102bc91906121d9565b610894565b6040516102ce9190612707565b60405180910390f35b3480156102e357600080fd5b506102fe60048036038101906102f99190611fe0565b610946565b60405161030b9190612a06565b60405180910390f35b34801561032057600080fd5b506103296109fe565b6040516103369190612a06565b60405180910390f35b34801561034b57600080fd5b50610354610a09565b60405161036191906127a4565b60405180910390f35b34801561037657600080fd5b50610391600480360381019061038c919061210f565b610a9b565b005b34801561039f57600080fd5b506103a8610ab1565b6040516103b591906127a4565b60405180910390f35b3480156103ca57600080fd5b506103e560048036038101906103e09190612094565b610aea565b005b3480156103f357600080fd5b5061040e60048036038101906104099190611fe0565b610b4c565b60405161041b9190612a06565b60405180910390f35b34801561043057600080fd5b5061044b600480360381019061044691906121d9565b610b63565b60405161045891906127a4565b60405180910390f35b34801561046d57600080fd5b5061048860048036038101906104839190612009565b610cb5565b604051610495919061276e565b60405180910390f35b6104b860048036038101906104b39190611fe0565b610d49565b6040516104c59190612a06565b60405180910390f35b3480156104da57600080fd5b506104e3610ecc565b6040516104f091906127a4565b60405180910390f35b60007f80ac58cd000000000000000000000000000000000000000000000000000000007bffffffffffffffffffffffffffffffffffffffffffffffffffffffff1916827bffffffffffffffffffffffffffffffffffffffffffffffffffffffff191614806105c457507f5b5e139f000000000000000000000000000000000000000000000000000000007bffffffffffffffffffffffffffffffffffffffffffffffffffffffff1916827bffffffffffffffffffffffffffffffffffffffffffffffffffffffff1916145b806105d457506105d382610f05565b5b9050919050565b6060600080546105ea90612c8f565b80601f016020809104026020016040519081016040528092919081815260200182805461061690612c8f565b80156106635780601f1061063857610100808354040283529160200191610663565b820191906000526020600020905b81548152906001019060200180831161064657829003601f168201915b5050505050905090565b600061067882610f6f565b6106b7576040517f08c379a00000000000000000000000000000000000000000000000000000000081526004016106ae90612946565b60405180910390fd5b6004600083815260200190815260200160002060009054906101000a900473ffffffffffffffffffffffffffffffffffffffff169050919050565b60006106fd82610894565b90508073ffffffffffffffffffffffffffffffffffffffff168373ffffffffffffffffffffffffffffffffffffffff16141561076e576040517f08c379a0000000000000000000000000000000000000000000000000000000008152600401610765906129c6565b60405180910390fd5b8073ffffffffffffffffffffffffffffffffffffffff1661078d610fdb565b73ffffffffffffffffffffffffffffffffffffffff1614806107bc57506107bb816107b6610fdb565b610cb5565b5b6107fb576040517f08c379a00000000000000000000000000000000000000000000000000000000081526004016107f290612886565b60405180910390fd5b6108058383610fe3565b505050565b600181565b61082061081a610fdb565b8261109c565b61085f576040517f08c379a0000000000000000000000000000000000000000000000000000000008152600401610856906129e6565b60405180910390fd5b61086a83838361117a565b505050565b606481565b61088f83838360405180602001604052806000815250610aea565b505050565b6000806002600084815260200190815260200160002060009054906101000a900473ffffffffffffffffffffffffffffffffffffffff169050600073ffffffffffffffffffffffffffffffffffffffff168173ffffffffffffffffffffffffffffffffffffffff16141561093d576040517f08c379a0000000000000000000000000000000000000000000000000000000008152600401610934906128c6565b60405180910390fd5b80915050919050565b60008073ffffffffffffffffffffffffffffffffffffffff168273ffffffffffffffffffffffffffffffffffffffff1614156109b7576040517f08c379a00000000000000000000000000000000000000000000000000000000081526004016109ae906128a6565b60405180910390fd5b600360008373ffffffffffffffffffffffffffffffffffffffff1673ffffffffffffffffffffffffffffffffffffffff168152602001908152602001600020549050919050565b66038d7ea4c6800081565b606060018054610a1890612c8f565b80601f0160208091040260200160405190810160405280929190818152602001828054610a4490612c8f565b8015610a915780601f10610a6657610100808354040283529160200191610a91565b820191906000526020600020905b815481529060010190602001808311610a7457829003601f168201915b5050505050905090565b610aad610aa6610fdb565b83836113e1565b5050565b6040518060400160405280600881526020017f47616d654974656d00000000000000000000000000000000000000000000000081525081565b610afb610af5610fdb565b8361109c565b610b3a576040517f08c379a0000000000000000000000000000000000000000000000000000000008152600401610b31906129e6565b60405180910390fd5b610b468484848461154e565b50505050565b600080610b5883610946565b905080915050919050565b6060610b6e82610f6f565b610bad576040517f08c379a0000000000000000000000000000000000000000000000000000000008152600401610ba490612926565b60405180910390fd5b6000600660008481526020019081526020016000208054610bcd90612c8f565b80601f0160208091040260200160405190810160405280929190818152602001828054610bf990612c8f565b8015610c465780601f10610c1b57610100808354040283529160200191610c46565b820191906000526020600020905b815481529060010190602001808311610c2957829003601f168201915b505050505090506000610c576115aa565b9050600081511415610c6d578192505050610cb0565b600082511115610ca2578082604051602001610c8a92919061267e565b60405160208183030381529060405292505050610cb0565b610cab846115c1565b925050505b919050565b6000600560008473ffffffffffffffffffffffffffffffffffffffff1673ffffffffffffffffffffffffffffffffffffffff16815260200190815260200160002060008373ffffffffffffffffffffffffffffffffffffffff1673ffffffffffffffffffffffffffffffffffffffff16815260200190815260200160002060009054906101000a900460ff16905092915050565b60006064610d576008611668565b10610d97576040517f08c379a0000000000000000000000000000000000000000000000000000000008152600401610d8e906129a6565b60405180910390fd5b66038d7ea4c68000341015610de1576040517f08c379a0000000000000000000000000000000000000000000000000000000008152600401610dd890612966565b60405180910390fd5b610deb6007611676565b6000610df76007611668565b90506000610e048261168c565b9050610e1084836116ea565b610e1a82826118c4565b6000610e2833868585611938565b9050600960009054906101000a900473ffffffffffffffffffffffffffffffffffffffff1673ffffffffffffffffffffffffffffffffffffffff16632c95ad52826040518263ffffffff1660e01b8152600401610e859190612789565b600060405180830381600087803b158015610e9f57600080fd5b505af1158015610eb3573d6000803e3d6000fd5b50505050610ec16008611676565b829350505050919050565b6040518060400160405280600381526020017f49544d000000000000000000000000000000000000000000000000000000000081525081565b60007f01ffc9a7000000000000000000000000000000000000000000000000000000007bffffffffffffffffffffffffffffffffffffffffffffffffffffffff1916827bffffffffffffffffffffffffffffffffffffffffffffffffffffffff1916149050919050565b60008073ffffffffffffffffffffffffffffffffffffffff166002600084815260200190815260200160002060009054906101000a900473ffffffffffffffffffffffffffffffffffffffff1673ffffffffffffffffffffffffffffffffffffffff1614159050919050565b600033905090565b816004600083815260200190815260200160002060006101000a81548173ffffffffffffffffffffffffffffffffffffffff021916908373ffffffffffffffffffffffffffffffffffffffff160217905550808273ffffffffffffffffffffffffffffffffffffffff1661105683610894565b73ffffffffffffffffffffffffffffffffffffffff167f8c5be1e5ebec7d5bd14f71427d1e84f3dd0314c0f7b2291e5b200ac8c7c3b92560405160405180910390a45050565b60006110a782610f6f565b6110e6576040517f08c379a00000000000000000000000000000000000000000000000000000000081526004016110dd90612866565b60405180910390fd5b60006110f183610894565b90508073ffffffffffffffffffffffffffffffffffffffff168473ffffffffffffffffffffffffffffffffffffffff16148061116057508373ffffffffffffffffffffffffffffffffffffffff166111488461066d565b73ffffffffffffffffffffffffffffffffffffffff16145b8061117157506111708185610cb5565b5b91505092915050565b8273ffffffffffffffffffffffffffffffffffffffff1661119a82610894565b73ffffffffffffffffffffffffffffffffffffffff16146111f0576040517f08c379a00000000000000000000000000000000000000000000000000000000081526004016111e7906127e6565b60405180910390fd5b600073ffffffffffffffffffffffffffffffffffffffff168273ffffffffffffffffffffffffffffffffffffffff161415611260576040517f08c379a000000000000000000000000000000000000000000000000000000000815260040161125790612826565b60405180910390fd5b61126b838383611971565b611276600082610fe3565b6001600360008573ffffffffffffffffffffffffffffffffffffffff1673ffffffffffffffffffffffffffffffffffffffff16815260200190815260200160002060008282546112c69190612b9b565b925050819055506001600360008473ffffffffffffffffffffffffffffffffffffffff1673ffffffffffffffffffffffffffffffffffffffff168152602001908152602001600020600082825461131d9190612aba565b92505081905550816002600083815260200190815260200160002060006101000a81548173ffffffffffffffffffffffffffffffffffffffff021916908373ffffffffffffffffffffffffffffffffffffffff160217905550808273ffffffffffffffffffffffffffffffffffffffff168473ffffffffffffffffffffffffffffffffffffffff167fddf252ad1be2c89b69c2b068fc378daa952ba7f163c4a11628f55a4df523b3ef60405160405180910390a46113dc838383611976565b505050565b8173ffffffffffffffffffffffffffffffffffffffff168373ffffffffffffffffffffffffffffffffffffffff161415611450576040517f08c379a000000000000000000000000000000000000000000000000000000000815260040161144790612846565b60405180910390fd5b80600560008573ffffffffffffffffffffffffffffffffffffffff1673ffffffffffffffffffffffffffffffffffffffff16815260200190815260200160002060008473ffffffffffffffffffffffffffffffffffffffff1673ffffffffffffffffffffffffffffffffffffffff16815260200190815260200160002060006101000a81548160ff0219169083151502179055508173ffffffffffffffffffffffffffffffffffffffff168373ffffffffffffffffffffffffffffffffffffffff167f17307eab39ab6107e8899845ad3d59bd9653f200f220920489ca2b5937696c3183604051611541919061276e565b60405180910390a3505050565b61155984848461117a565b6115658484848461197b565b6115a4576040517f08c379a000000000000000000000000000000000000000000000000000000000815260040161159b906127c6565b60405180910390fd5b50505050565b606060405180602001604052806000815250905090565b60606115cc82610f6f565b61160b576040517f08c379a000000000000000000000000000000000000000000000000000000000815260040161160290612986565b60405180910390fd5b60006116156115aa565b905060008151116116355760405180602001604052806000815250611660565b8061163f84611b12565b60405160200161165092919061267e565b6040516020818303038152906040525b915050919050565b600081600001549050919050565b6001816000016000828254019250508190555050565b6060600061169983611b12565b6040516020016116a991906126a2565b60405160208183030381529060405290506116c381611cbf565b6040516020016116d391906126e5565b604051602081830303815290604052915050919050565b600073ffffffffffffffffffffffffffffffffffffffff168273ffffffffffffffffffffffffffffffffffffffff16141561175a576040517f08c379a000000000000000000000000000000000000000000000000000000000815260040161175190612906565b60405180910390fd5b61176381610f6f565b156117a3576040517f08c379a000000000000000000000000000000000000000000000000000000000815260040161179a90612806565b60405180910390fd5b6117af60008383611971565b6001600360008473ffffffffffffffffffffffffffffffffffffffff1673ffffffffffffffffffffffffffffffffffffffff16815260200190815260200160002060008282546117ff9190612aba565b92505081905550816002600083815260200190815260200160002060006101000a81548173ffffffffffffffffffffffffffffffffffffffff021916908373ffffffffffffffffffffffffffffffffffffffff160217905550808273ffffffffffffffffffffffffffffffffffffffff16600073ffffffffffffffffffffffffffffffffffffffff167fddf252ad1be2c89b69c2b068fc378daa952ba7f163c4a11628f55a4df523b3ef60405160405180910390a46118c060008383611976565b5050565b6118cd82610f6f565b61190c576040517f08c379a0000000000000000000000000000000000000000000000000000000008152600401611903906128e6565b60405180910390fd5b80600660008481526020019081526020016000209080519060200190611933929190611e6c565b505050565b6000848484846040516020016119519493929190612634565b604051602081830303815290604052805190602001209050949350505050565b505050565b505050565b600061199c8473ffffffffffffffffffffffffffffffffffffffff16611e49565b15611b05578373ffffffffffffffffffffffffffffffffffffffff1663150b7a026119c5610fdb565b8786866040518563ffffffff1660e01b81526004016119e79493929190612722565b602060405180830381600087803b158015611a0157600080fd5b505af1925050508015611a3257506040513d601f19601f82011682018060405250810190611a2f91906121b0565b60015b611ab5573d8060008114611a62576040519150601f19603f3d011682016040523d82523d6000602084013e611a67565b606091505b50600081511415611aad576040517f08c379a0000000000000000000000000000000000000000000000000000000008152600401611aa4906127c6565b60405180910390fd5b805181602001fd5b63150b7a0260e01b7bffffffffffffffffffffffffffffffffffffffffffffffffffffffff1916817bffffffffffffffffffffffffffffffffffffffffffffffffffffffff191614915050611b0a565b600190505b949350505050565b60606000821415611b5a576040518060400160405280600181526020017f30000000000000000000000000000000000000000000000000000000000000008152509050611cba565b600082905060005b60008214611b8c578080611b7590612cf2565b915050600a82611b859190612b10565b9150611b62565b60008167ffffffffffffffff811115611bce577f4e487b7100000000000000000000000000000000000000000000000000000000600052604160045260246000fd5b6040519080825280601f01601f191660200182016040528015611c005781602001600182028036833780820191505090505b5090505b60008514611cb357600182611c199190612b9b565b9150600a85611c289190612d69565b6030611c349190612aba565b60f81b818381518110611c70577f4e487b7100000000000000000000000000000000000000000000000000000000600052603260045260246000fd5b60200101907effffffffffffffffffffffffffffffffffffffffffffffffffffffffffffff1916908160001a905350600a85611cac9190612b10565b9450611c04565b8093505050505b919050565b6060600082511415611ce257604051806020016040528060008152509050611e44565b60006040518060600160405280604081526020016134946040913990506000600360028551611d119190612aba565b611d1b9190612b10565b6004611d279190612b41565b67ffffffffffffffff811115611d66577f4e487b7100000000000000000000000000000000000000000000000000000000600052604160045260246000fd5b6040519080825280601f01601f191660200182016040528015611d985781602001600182028036833780820191505090505b509050600182016020820185865187015b80821015611e04576003820191508151603f8160121c168501518453600184019350603f81600c1c168501518453600184019350603f8160061c168501518453600184019350603f8116850151845360018401935050611da9565b5050600386510660018114611e205760028114611e3357611e3b565b603d6001830353603d6002830353611e3b565b603d60018303535b50505080925050505b919050565b6000808273ffffffffffffffffffffffffffffffffffffffff163b119050919050565b828054611e7890612c8f565b90600052602060002090601f016020900481019282611e9a5760008555611ee1565b82601f10611eb357805160ff1916838001178555611ee1565b82800160010185558215611ee1579182015b82811115611ee0578251825591602001919060010190611ec5565b5b509050611eee9190611ef2565b5090565b5b80821115611f0b576000816000905550600101611ef3565b5090565b6000611f22611f1d84612a46565b612a21565b905082815260208101848484011115611f3a57600080fd5b611f45848285612c4d565b509392505050565b600081359050611f5c81613437565b92915050565b600081359050611f718161344e565b92915050565b600081359050611f8681613465565b92915050565b600081519050611f9b81613465565b92915050565b600082601f830112611fb257600080fd5b8135611fc2848260208601611f0f565b91505092915050565b600081359050611fda8161347c565b92915050565b600060208284031215611ff257600080fd5b600061200084828501611f4d565b91505092915050565b6000806040838503121561201c57600080fd5b600061202a85828601611f4d565b925050602061203b85828601611f4d565b9150509250929050565b60008060006060848603121561205a57600080fd5b600061206886828701611f4d565b935050602061207986828701611f4d565b925050604061208a86828701611fcb565b9150509250925092565b600080600080608085870312156120aa57600080fd5b60006120b887828801611f4d565b94505060206120c987828801611f4d565b93505060406120da87828801611fcb565b925050606085013567ffffffffffffffff8111156120f757600080fd5b61210387828801611fa1565b91505092959194509250565b6000806040838503121561212257600080fd5b600061213085828601611f4d565b925050602061214185828601611f62565b9150509250929050565b6000806040838503121561215e57600080fd5b600061216c85828601611f4d565b925050602061217d85828601611fcb565b9150509250929050565b60006020828403121561219957600080fd5b60006121a784828501611f77565b91505092915050565b6000602082840312156121c257600080fd5b60006121d084828501611f8c565b91505092915050565b6000602082840312156121eb57600080fd5b60006121f984828501611fcb565b91505092915050565b61220b81612bcf565b82525050565b61222261221d82612bcf565b612d3b565b82525050565b61223181612be1565b82525050565b61224081612bed565b82525050565b600061225182612a77565b61225b8185612a8d565b935061226b818560208601612c5c565b61227481612e56565b840191505092915050565b600061228a82612a82565b6122948185612a9e565b93506122a4818560208601612c5c565b6122ad81612e56565b840191505092915050565b60006122c382612a82565b6122cd8185612aaf565b93506122dd818560208601612c5c565b80840191505092915050565b60006122f6603283612a9e565b915061230182612e74565b604082019050919050565b6000612319602583612a9e565b915061232482612ec3565b604082019050919050565b600061233c601c83612a9e565b915061234782612f12565b602082019050919050565b600061235f601483612aaf565b915061236a82612f3b565b601482019050919050565b6000612382602483612a9e565b915061238d82612f64565b604082019050919050565b60006123a5601983612a9e565b91506123b082612fb3565b602082019050919050565b60006123c8602c83612a9e565b91506123d382612fdc565b604082019050919050565b60006123eb603883612a9e565b91506123f68261302b565b604082019050919050565b600061240e600183612aaf565b91506124198261307a565b600182019050919050565b6000612431602a83612a9e565b915061243c826130a3565b604082019050919050565b6000612454602983612a9e565b915061245f826130f2565b604082019050919050565b6000612477602e83612a9e565b915061248282613141565b604082019050919050565b600061249a602083612a9e565b91506124a582613190565b602082019050919050565b60006124bd603183612a9e565b91506124c8826131b9565b604082019050919050565b60006124e0602c83612a9e565b91506124eb82613208565b604082019050919050565b6000612503601c83612a9e565b915061250e82613257565b602082019050919050565b6000612526602f83612a9e565b915061253182613280565b604082019050919050565b6000612549600183612aaf565b9150612554826132cf565b600182019050919050565b600061256c600d83612a9e565b9150612577826132f8565b602082019050919050565b600061258f602183612a9e565b915061259a82613321565b604082019050919050565b60006125b2601d83612aaf565b91506125bd82613370565b601d82019050919050565b60006125d5603183612a9e565b91506125e082613399565b604082019050919050565b60006125f8602283612aaf565b9150612603826133e8565b602282019050919050565b61261781612c43565b82525050565b61262e61262982612c43565b612d5f565b82525050565b60006126408287612211565b6014820191506126508286612211565b601482019150612660828561261d565b60208201915061267082846122b8565b915081905095945050505050565b600061268a82856122b8565b915061269682846122b8565b91508190509392505050565b60006126ad8261253c565b91506126b882612352565b91506126c482846122b8565b91506126cf82612401565b91506126da826125eb565b915081905092915050565b60006126f0826125a5565b91506126fc82846122b8565b915081905092915050565b600060208201905061271c6000830184612202565b92915050565b60006080820190506127376000830187612202565b6127446020830186612202565b612751604083018561260e565b81810360608301526127638184612246565b905095945050505050565b60006020820190506127836000830184612228565b92915050565b600060208201905061279e6000830184612237565b92915050565b600060208201905081810360008301526127be818461227f565b905092915050565b600060208201905081810360008301526127df816122e9565b9050919050565b600060208201905081810360008301526127ff8161230c565b9050919050565b6000602082019050818103600083015261281f8161232f565b9050919050565b6000602082019050818103600083015261283f81612375565b9050919050565b6000602082019050818103600083015261285f81612398565b9050919050565b6000602082019050818103600083015261287f816123bb565b9050919050565b6000602082019050818103600083015261289f816123de565b9050919050565b600060208201905081810360008301526128bf81612424565b9050919050565b600060208201905081810360008301526128df81612447565b9050919050565b600060208201905081810360008301526128ff8161246a565b9050919050565b6000602082019050818103600083015261291f8161248d565b9050919050565b6000602082019050818103600083015261293f816124b0565b9050919050565b6000602082019050818103600083015261295f816124d3565b9050919050565b6000602082019050818103600083015261297f816124f6565b9050919050565b6000602082019050818103600083015261299f81612519565b9050919050565b600060208201905081810360008301526129bf8161255f565b9050919050565b600060208201905081810360008301526129df81612582565b9050919050565b600060208201905081810360008301526129ff816125c8565b9050919050565b6000602082019050612a1b600083018461260e565b92915050565b6000612a2b612a3c565b9050612a378282612cc1565b919050565b6000604051905090565b600067ffffffffffffffff821115612a6157612a60612e27565b5b612a6a82612e56565b9050602081019050919050565b600081519050919050565b600081519050919050565b600082825260208201905092915050565b600082825260208201905092915050565b600081905092915050565b6000612ac582612c43565b9150612ad083612c43565b9250827fffffffffffffffffffffffffffffffffffffffffffffffffffffffffffffffff03821115612b0557612b04612d9a565b5b828201905092915050565b6000612b1b82612c43565b9150612b2683612c43565b925082612b3657612b35612dc9565b5b828204905092915050565b6000612b4c82612c43565b9150612b5783612c43565b9250817fffffffffffffffffffffffffffffffffffffffffffffffffffffffffffffffff0483118215151615612b9057612b8f612d9a565b5b828202905092915050565b6000612ba682612c43565b9150612bb183612c43565b925082821015612bc457612bc3612d9a565b5b828203905092915050565b6000612bda82612c23565b9050919050565b60008115159050919050565b6000819050919050565b60007fffffffff0000000000000000000000000000000000000000000000000000000082169050919050565b600073ffffffffffffffffffffffffffffffffffffffff82169050919050565b6000819050919050565b82818337600083830152505050565b60005b83811015612c7a578082015181840152602081019050612c5f565b83811115612c89576000848401525b50505050565b60006002820490506001821680612ca757607f821691505b60208210811415612cbb57612cba612df8565b5b50919050565b612cca82612e56565b810181811067ffffffffffffffff82111715612ce957612ce8612e27565b5b80604052505050565b6000612cfd82612c43565b91507fffffffffffffffffffffffffffffffffffffffffffffffffffffffffffffffff821415612d3057612d2f612d9a565b5b600182019050919050565b6000612d4682612d4d565b9050919050565b6000612d5882612e67565b9050919050565b6000819050919050565b6000612d7482612c43565b9150612d7f83612c43565b925082612d8f57612d8e612dc9565b5b828206905092915050565b7f4e487b7100000000000000000000000000000000000000000000000000000000600052601160045260246000fd5b7f4e487b7100000000000000000000000000000000000000000000000000000000600052601260045260246000fd5b7f4e487b7100000000000000000000000000000000000000000000000000000000600052602260045260246000fd5b7f4e487b7100000000000000000000000000000000000000000000000000000000600052604160045260246000fd5b6000601f19601f8301169050919050565b60008160601b9050919050565b7f4552433732313a207472616e7366657220746f206e6f6e20455243373231526560008201527f63656976657220696d706c656d656e7465720000000000000000000000000000602082015250565b7f4552433732313a207472616e736665722066726f6d20696e636f72726563742060008201527f6f776e6572000000000000000000000000000000000000000000000000000000602082015250565b7f4552433732313a20746f6b656e20616c7265616479206d696e74656400000000600082015250565b7f226e616d65223a2022426f6f6d6572616e672023000000000000000000000000600082015250565b7f4552433732313a207472616e7366657220746f20746865207a65726f2061646460008201527f7265737300000000000000000000000000000000000000000000000000000000602082015250565b7f4552433732313a20617070726f766520746f2063616c6c657200000000000000600082015250565b7f4552433732313a206f70657261746f7220717565727920666f72206e6f6e657860008201527f697374656e7420746f6b656e0000000000000000000000000000000000000000602082015250565b7f4552433732313a20617070726f76652063616c6c6572206973206e6f74206f7760008201527f6e6572206e6f7220617070726f76656420666f7220616c6c0000000000000000602082015250565b7f2200000000000000000000000000000000000000000000000000000000000000600082015250565b7f4552433732313a2062616c616e636520717565727920666f7220746865207a6560008201527f726f206164647265737300000000000000000000000000000000000000000000602082015250565b7f4552433732313a206f776e657220717565727920666f72206e6f6e657869737460008201527f656e7420746f6b656e0000000000000000000000000000000000000000000000602082015250565b7f45524337323155524953746f726167653a2055524920736574206f66206e6f6e60008201527f6578697374656e7420746f6b656e000000000000000000000000000000000000602082015250565b7f4552433732313a206d696e7420746f20746865207a65726f2061646472657373600082015250565b7f45524337323155524953746f726167653a2055524920717565727920666f722060008201527f6e6f6e6578697374656e7420746f6b656e000000000000000000000000000000602082015250565b7f4552433732313a20617070726f76656420717565727920666f72206e6f6e657860008201527f697374656e7420746f6b656e0000000000000000000000000000000000000000602082015250565b7f4e6f7420656e6f75676820657468657220746f206d696e74204e465400000000600082015250565b7f4552433732314d657461646174613a2055524920717565727920666f72206e6f60008201527f6e6578697374656e7420746f6b656e0000000000000000000000000000000000602082015250565b7f7b00000000000000000000000000000000000000000000000000000000000000600082015250565b7f4e46547320736f6c64206f757400000000000000000000000000000000000000600082015250565b7f4552433732313a20617070726f76616c20746f2063757272656e74206f776e6560008201527f7200000000000000000000000000000000000000000000000000000000000000602082015250565b7f646174613a6170706c69636174696f6e2f6a736f6e3b6261736536342c000000600082015250565b7f4552433732313a207472616e736665722063616c6c6572206973206e6f74206f60008201527f776e6572206e6f7220617070726f766564000000000000000000000000000000602082015250565b7f226465736372697074696f6e223a2022576f6f64656e20626f6f6d6572616e6760008201527f227d000000000000000000000000000000000000000000000000000000000000602082015250565b61344081612bcf565b811461344b57600080fd5b50565b61345781612be1565b811461346257600080fd5b50565b61346e81612bf7565b811461347957600080fd5b50565b61348581612c43565b811461349057600080fd5b5056fe4142434445464748494a4b4c4d4e4f505152535455565758595a6162636465666768696a6b6c6d6e6f707172737475767778797a303132333435363738392b2fa2646970667358221220716d2668b02c61a25a6586465b332d48dffc906fdf6e38137bb39abd8cff0b8164736f6c634300080100336080604052608060015534801561001557600080fd5b506001805460026100269190610123565b610030919061017d565b67ffffffffffffffff81111561006f577f4e487b7100000000000000000000000000000000000000000000000000000000600052604160045260246000fd5b60405190808252806020026020018201604052801561009d5781602001602082028036833780820191505090505b50600090805190602001906100b39291906100b9565b506101ea565b8280548282559060005260206000209081019282156100f5579160200282015b828111156100f45782518255916020019190600101906100d9565b5b5090506101029190610106565b5090565b5b8082111561011f576000816000905550600101610107565b5090565b600061012e826101b1565b9150610139836101b1565b9250817fffffffffffffffffffffffffffffffffffffffffffffffffffffffffffffffff0483118215151615610172576101716101bb565b5b828202905092915050565b6000610188826101b1565b9150610193836101b1565b9250828210156101a6576101a56101bb565b5b828203905092915050565b6000819050919050565b7f4e487b7100000000000000000000000000000000000000000000000000000000600052601160045260246000fd5b610746806101f96000396000f3fe608060405234801561001057600080fd5b50600436106100575760003560e01c80632c95ad521461005c578063501895ae146100785780635ca1e165146100a8578063a98d8a0a146100c6578063d8c6b181146100e4575b600080fd5b610076600480360381019061007191906103fc565b610102565b005b610092600480360381019061008d9190610425565b6101b2565b60405161009f91906104d2565b60405180910390f35b6100b06101d6565b6040516100bd91906104d2565b60405180910390f35b6100ce610232565b6040516100db919061050d565b60405180910390f35b6100ec610238565b6040516100f9919061050d565b60405180910390f35b60015460025410610148576040517f08c379a000000000000000000000000000000000000000000000000000000000815260040161013f906104ed565b60405180910390fd5b8060006002600081548092919061015e90610608565b9190505581548110610199577f4e487b7100000000000000000000000000000000000000000000000000000000600052603260045260246000fd5b90600052602060002001819055506101af61023e565b50565b600081815481106101c257600080fd5b906000526020600020016000915090505481565b60008060016000805490506101eb91906105c0565b81548110610222577f4e487b7100000000000000000000000000000000000000000000000000000000600052603260045260246000fd5b9060005260206000200154905090565b60015481565b60025481565b600060015490506000600154905060005b60008311156103cd5760005b60018461026891906105c0565b8110156103aa576000818361027d9190610539565b815481106102b4577f4e487b7100000000000000000000000000000000000000000000000000000000600052603260045260246000fd5b90600052602060002001546000600183856102cf9190610539565b6102d99190610539565b81548110610310577f4e487b7100000000000000000000000000000000000000000000000000000000600052603260045260246000fd5b906000526020600020015460405160200161032c9291906104a6565b604051602081830303815290604052805190602001206000848061034f90610608565b955081548110610388577f4e487b7100000000000000000000000000000000000000000000000000000000600052603260045260246000fd5b90600052602060002001819055506002816103a39190610539565b905061025b565b5082816103b79190610539565b90506002836103c6919061058f565b925061024f565b505050565b6000813590506103e1816106e2565b92915050565b6000813590506103f6816106f9565b92915050565b60006020828403121561040e57600080fd5b600061041c848285016103d2565b91505092915050565b60006020828403121561043757600080fd5b6000610445848285016103e7565b91505092915050565b610457816105f4565b82525050565b61046e610469826105f4565b610651565b82525050565b6000610481601f83610528565b915061048c826106b9565b602082019050919050565b6104a0816105fe565b82525050565b60006104b2828561045d565b6020820191506104c2828461045d565b6020820191508190509392505050565b60006020820190506104e7600083018461044e565b92915050565b6000602082019050818103600083015261050681610474565b9050919050565b60006020820190506105226000830184610497565b92915050565b600082825260208201905092915050565b6000610544826105fe565b915061054f836105fe565b9250827fffffffffffffffffffffffffffffffffffffffffffffffffffffffffffffffff038211156105845761058361065b565b5b828201905092915050565b600061059a826105fe565b91506105a5836105fe565b9250826105b5576105b461068a565b5b828204905092915050565b60006105cb826105fe565b91506105d6836105fe565b9250828210156105e9576105e861065b565b5b828203905092915050565b6000819050919050565b6000819050919050565b6000610613826105fe565b91507fffffffffffffffffffffffffffffffffffffffffffffffffffffffffffffffff8214156106465761064561065b565b5b600182019050919050565b6000819050919050565b7f4e487b7100000000000000000000000000000000000000000000000000000000600052601160045260246000fd5b7f4e487b7100000000000000000000000000000000000000000000000000000000600052601260045260246000fd5b7f4d6178696d756d206e756d626572206f66206d696e7473207265616368656400600082015250565b6106eb816105f4565b81146106f657600080fd5b50565b610702816105fe565b811461070d57600080fd5b5056fea264697066735822122046bc0cb91201778e49b01c09548a60f6a190b56e0373d0a7a54c3399337b1b8764736f6c63430008010033",
  "linkReferences": {},
  "deployedLinkReferences": {}
}