{
  "_format": "hh-sol-artifact-1",
  "contractName": "MerkleTree",
  "sourceName": "contracts/GameItem.sol",
  "abi": [
    {
      "inputs": [],
      "stateMutability": "nonpayable",
      "type": "constructor"
    },
    {
      "inputs": [
        {
          "internalType": "bytes32",
          "name": "hash",
          "type": "bytes32"
        }
      ],
      "name": "addItem",
      "outputs": [],
      "stateMutability": "nonpayable",
      "type": "function"
    },
    {
      "inputs": [],
      "name": "getRoot",
      "outputs": [
        {
          "internalType": "bytes32",
          "name": "",
          "type": "bytes32"
        }
      ],
      "stateMutability": "view",
      "type": "function"
    },
    {
      "inputs": [
        {
          "internalType": "uint256",
          "name": "",
          "type": "uint256"
        }
      ],
      "name": "hashes",
      "outputs": [
        {
          "internalType": "bytes32",
          "name": "",
          "type": "bytes32"
        }
      ],
      "stateMutability": "view",
      "type": "function"
    },
    {
      "inputs": [],
      "name": "nMinted",
      "outputs": [
        {
          "internalType": "uint256",
          "name": "",
          "type": "uint256"
        }
      ],
      "stateMutability": "view",
      "type": "function"
    },
    {
      "inputs": [],
      "name": "nSlots",
      "outputs": [
        {
          "internalType": "uint256",
          "name": "",
          "type": "uint256"
        }
      ],
      "stateMutability": "view",
      "type": "function"
    }
  ],
  "bytecode": "0x6080604052608060015534801561001557600080fd5b506001805460026100269190610123565b610030919061017d565b67ffffffffffffffff81111561006f577f4e487b7100000000000000000000000000000000000000000000000000000000600052604160045260246000fd5b60405190808252806020026020018201604052801561009d5781602001602082028036833780820191505090505b50600090805190602001906100b39291906100b9565b506101ea565b8280548282559060005260206000209081019282156100f5579160200282015b828111156100f45782518255916020019190600101906100d9565b5b5090506101029190610106565b5090565b5b8082111561011f576000816000905550600101610107565b5090565b600061012e826101b1565b9150610139836101b1565b9250817fffffffffffffffffffffffffffffffffffffffffffffffffffffffffffffffff0483118215151615610172576101716101bb565b5b828202905092915050565b6000610188826101b1565b9150610193836101b1565b9250828210156101a6576101a56101bb565b5b828203905092915050565b6000819050919050565b7f4e487b7100000000000000000000000000000000000000000000000000000000600052601160045260246000fd5b610746806101f96000396000f3fe608060405234801561001057600080fd5b50600436106100575760003560e01c80632c95ad521461005c578063501895ae146100785780635ca1e165146100a8578063a98d8a0a146100c6578063d8c6b181146100e4575b600080fd5b610076600480360381019061007191906103fc565b610102565b005b610092600480360381019061008d9190610425565b6101b2565b60405161009f91906104d2565b60405180910390f35b6100b06101d6565b6040516100bd91906104d2565b60405180910390f35b6100ce610232565b6040516100db919061050d565b60405180910390f35b6100ec610238565b6040516100f9919061050d565b60405180910390f35b60015460025410610148576040517f08c379a000000000000000000000000000000000000000000000000000000000815260040161013f906104ed565b60405180910390fd5b8060006002600081548092919061015e90610608565b9190505581548110610199577f4e487b7100000000000000000000000000000000000000000000000000000000600052603260045260246000fd5b90600052602060002001819055506101af61023e565b50565b600081815481106101c257600080fd5b906000526020600020016000915090505481565b60008060016000805490506101eb91906105c0565b81548110610222577f4e487b7100000000000000000000000000000000000000000000000000000000600052603260045260246000fd5b9060005260206000200154905090565b60015481565b60025481565b600060015490506000600154905060005b60008311156103cd5760005b60018461026891906105c0565b8110156103aa576000818361027d9190610539565b815481106102b4577f4e487b7100000000000000000000000000000000000000000000000000000000600052603260045260246000fd5b90600052602060002001546000600183856102cf9190610539565b6102d99190610539565b81548110610310577f4e487b7100000000000000000000000000000000000000000000000000000000600052603260045260246000fd5b906000526020600020015460405160200161032c9291906104a6565b604051602081830303815290604052805190602001206000848061034f90610608565b955081548110610388577f4e487b7100000000000000000000000000000000000000000000000000000000600052603260045260246000fd5b90600052602060002001819055506002816103a39190610539565b905061025b565b5082816103b79190610539565b90506002836103c6919061058f565b925061024f565b505050565b6000813590506103e1816106e2565b92915050565b6000813590506103f6816106f9565b92915050565b60006020828403121561040e57600080fd5b600061041c848285016103d2565b91505092915050565b60006020828403121561043757600080fd5b6000610445848285016103e7565b91505092915050565b610457816105f4565b82525050565b61046e610469826105f4565b610651565b82525050565b6000610481601f83610528565b915061048c826106b9565b602082019050919050565b6104a0816105fe565b82525050565b60006104b2828561045d565b6020820191506104c2828461045d565b6020820191508190509392505050565b60006020820190506104e7600083018461044e565b92915050565b6000602082019050818103600083015261050681610474565b9050919050565b60006020820190506105226000830184610497565b92915050565b600082825260208201905092915050565b6000610544826105fe565b915061054f836105fe565b9250827fffffffffffffffffffffffffffffffffffffffffffffffffffffffffffffffff038211156105845761058361065b565b5b828201905092915050565b600061059a826105fe565b91506105a5836105fe565b9250826105b5576105b461068a565b5b828204905092915050565b60006105cb826105fe565b91506105d6836105fe565b9250828210156105e9576105e861065b565b5b828203905092915050565b6000819050919050565b6000819050919050565b6000610613826105fe565b91507fffffffffffffffffffffffffffffffffffffffffffffffffffffffffffffffff8214156106465761064561065b565b5b600182019050919050565b6000819050919050565b7f4e487b7100000000000000000000000000000000000000000000000000000000600052601160045260246000fd5b7f4e487b7100000000000000000000000000000000000000000000000000000000600052601260045260246000fd5b7f4d6178696d756d206e756d626572206f66206d696e7473207265616368656400600082015250565b6106eb816105f4565b81146106f657600080fd5b50565b610702816105fe565b811461070d57600080fd5b5056fea264697066735822122046bc0cb91201778e49b01c09548a60f6a190b56e0373d0a7a54c3399337b1b8764736f6c63430008010033",
  "linkReferences": {},
  "deployedLinkReferences": {}
}